{"abi":[{"type":"constructor","inputs":[{"name":"asset_","type":"address","internalType":"contract IERC20"},{"name":"morphoVault_","type":"address","internalType":"address"}],"stateMutability":"nonpayable"},{"type":"function","name":"BASIS_POINTS","inputs":[],"outputs":[{"name":"","type":"uint256","internalType":"uint256"}],"stateMutability":"view"},{"type":"function","name":"DEAD_ADDRESS","inputs":[],"outputs":[{"name":"","type":"address","internalType":"address"}],"stateMutability":"view"},{"type":"function","name":"DEAD_SHARES","inputs":[],"outputs":[{"name":"","type":"uint256","internalType":"uint256"}],"stateMutability":"view"},{"type":"function","name":"MIN_DEPOSIT","inputs":[],"outputs":[{"name":"","type":"uint256","internalType":"uint256"}],"stateMutability":"view"},{"type":"function","name":"SLIPPAGE_TOLERANCE","inputs":[],"outputs":[{"name":"","type":"uint256","internalType":"uint256"}],"stateMutability":"view"},{"type":"function","name":"USDC","inputs":[],"outputs":[{"name":"","type":"address","internalType":"address"}],"stateMutability":"view"},{"type":"function","name":"allowance","inputs":[{"name":"owner","type":"address","internalType":"address"},{"name":"spender","type":"address","internalType":"address"}],"outputs":[{"name":"","type":"uint256","internalType":"uint256"}],"stateMutability":"view"},{"type":"function","name":"approve","inputs":[{"name":"spender","type":"address","internalType":"address"},{"name":"value","type":"uint256","internalType":"uint256"}],"outputs":[{"name":"","type":"bool","internalType":"bool"}],"stateMutability":"nonpayable"},{"type":"function","name":"asset","inputs":[],"outputs":[{"name":"","type":"address","internalType":"address"}],"stateMutability":"view"},{"type":"function","name":"balanceOf","inputs":[{"name":"account","type":"address","internalType":"address"}],"outputs":[{"name":"","type":"uint256","internalType":"uint256"}],"stateMutability":"view"},{"type":"function","name":"convertToAssets","inputs":[{"name":"shares","type":"uint256","internalType":"uint256"}],"outputs":[{"name":"","type":"uint256","internalType":"uint256"}],"stateMutability":"view"},{"type":"function","name":"convertToShares","inputs":[{"name":"assets","type":"uint256","internalType":"uint256"}],"outputs":[{"name":"","type":"uint256","internalType":"uint256"}],"stateMutability":"view"},{"type":"function","name":"decimals","inputs":[],"outputs":[{"name":"","type":"uint8","internalType":"uint8"}],"stateMutability":"pure"},{"type":"function","name":"deposit","inputs":[{"name":"assets","type":"uint256","internalType":"uint256"},{"name":"receiver","type":"address","internalType":"address"}],"outputs":[{"name":"","type":"uint256","internalType":"uint256"}],"stateMutability":"nonpayable"},{"type":"function","name":"emergencyWithdraw","inputs":[{"name":"shares","type":"uint256","internalType":"uint256"},{"name":"receiver","type":"address","internalType":"address"}],"outputs":[{"name":"assets","type":"uint256","internalType":"uint256"}],"stateMutability":"nonpayable"},{"type":"function","name":"emergencyWithdrawFromMorpho","inputs":[],"outputs":[],"stateMutability":"nonpayable"},{"type":"function","name":"getSlippageTolerance","inputs":[],"outputs":[{"name":"","type":"uint256","internalType":"uint256"}],"stateMutability":"pure"},{"type":"function","name":"isPaused","inputs":[],"outputs":[{"name":"","type":"bool","internalType":"bool"}],"stateMutability":"view"},{"type":"function","name":"isSlippageAcceptable","inputs":[{"name":"expected","type":"uint256","internalType":"uint256"},{"name":"actual","type":"uint256","internalType":"uint256"}],"outputs":[{"name":"","type":"bool","internalType":"bool"}],"stateMutability":"pure"},{"type":"function","name":"maxDeposit","inputs":[{"name":"","type":"address","internalType":"address"}],"outputs":[{"name":"","type":"uint256","internalType":"uint256"}],"stateMutability":"view"},{"type":"function","name":"maxMint","inputs":[{"name":"","type":"address","internalType":"address"}],"outputs":[{"name":"","type":"uint256","internalType":"uint256"}],"stateMutability":"pure"},{"type":"function","name":"maxRedeem","inputs":[{"name":"owner","type":"address","internalType":"address"}],"outputs":[{"name":"","type":"uint256","internalType":"uint256"}],"stateMutability":"view"},{"type":"function","name":"maxWithdraw","inputs":[{"name":"","type":"address","internalType":"address"}],"outputs":[{"name":"","type":"uint256","internalType":"uint256"}],"stateMutability":"pure"},{"type":"function","name":"mint","inputs":[{"name":"","type":"uint256","internalType":"uint256"},{"name":"","type":"address","internalType":"address"}],"outputs":[{"name":"","type":"uint256","internalType":"uint256"}],"stateMutability":"pure"},{"type":"function","name":"morphoVault","inputs":[],"outputs":[{"name":"","type":"address","internalType":"contract IERC4626"}],"stateMutability":"view"},{"type":"function","name":"name","inputs":[],"outputs":[{"name":"","type":"string","internalType":"string"}],"stateMutability":"view"},{"type":"function","name":"owner","inputs":[],"outputs":[{"name":"","type":"address","internalType":"address"}],"stateMutability":"view"},{"type":"function","name":"pause","inputs":[],"outputs":[],"stateMutability":"nonpayable"},{"type":"function","name":"paused","inputs":[],"outputs":[{"name":"","type":"bool","internalType":"bool"}],"stateMutability":"view"},{"type":"function","name":"previewDeposit","inputs":[{"name":"assets","type":"uint256","internalType":"uint256"}],"outputs":[{"name":"","type":"uint256","internalType":"uint256"}],"stateMutability":"view"},{"type":"function","name":"previewMint","inputs":[{"name":"","type":"uint256","internalType":"uint256"}],"outputs":[{"name":"","type":"uint256","internalType":"uint256"}],"stateMutability":"pure"},{"type":"function","name":"previewRedeem","inputs":[{"name":"shares","type":"uint256","internalType":"uint256"}],"outputs":[{"name":"","type":"uint256","internalType":"uint256"}],"stateMutability":"view"},{"type":"function","name":"previewWithdraw","inputs":[{"name":"","type":"uint256","internalType":"uint256"}],"outputs":[{"name":"","type":"uint256","internalType":"uint256"}],"stateMutability":"pure"},{"type":"function","name":"redeem","inputs":[{"name":"shares","type":"uint256","internalType":"uint256"},{"name":"receiver","type":"address","internalType":"address"},{"name":"owner","type":"address","internalType":"address"}],"outputs":[{"name":"","type":"uint256","internalType":"uint256"}],"stateMutability":"nonpayable"},{"type":"function","name":"renounceOwnership","inputs":[],"outputs":[],"stateMutability":"nonpayable"},{"type":"function","name":"symbol","inputs":[],"outputs":[{"name":"","type":"string","internalType":"string"}],"stateMutability":"view"},{"type":"function","name":"totalAssets","inputs":[],"outputs":[{"name":"","type":"uint256","internalType":"uint256"}],"stateMutability":"view"},{"type":"function","name":"totalSupply","inputs":[],"outputs":[{"name":"","type":"uint256","internalType":"uint256"}],"stateMutability":"view"},{"type":"function","name":"transfer","inputs":[{"name":"to","type":"address","internalType":"address"},{"name":"value","type":"uint256","internalType":"uint256"}],"outputs":[{"name":"","type":"bool","internalType":"bool"}],"stateMutability":"nonpayable"},{"type":"function","name":"transferFrom","inputs":[{"name":"from","type":"address","internalType":"address"},{"name":"to","type":"address","internalType":"address"},{"name":"value","type":"uint256","internalType":"uint256"}],"outputs":[{"name":"","type":"bool","internalType":"bool"}],"stateMutability":"nonpayable"},{"type":"function","name":"transferOwnership","inputs":[{"name":"newOwner","type":"address","internalType":"address"}],"outputs":[],"stateMutability":"nonpayable"},{"type":"function","name":"unpause","inputs":[],"outputs":[],"stateMutability":"nonpayable"},{"type":"function","name":"withdraw","inputs":[{"name":"","type":"uint256","internalType":"uint256"},{"name":"","type":"address","internalType":"address"},{"name":"","type":"address","internalType":"address"}],"outputs":[{"name":"","type":"uint256","internalType":"uint256"}],"stateMutability":"pure"},{"type":"event","name":"Approval","inputs":[{"name":"owner","type":"address","indexed":true,"internalType":"address"},{"name":"spender","type":"address","indexed":true,"internalType":"address"},{"name":"value","type":"uint256","indexed":false,"internalType":"uint256"}],"anonymous":false},{"type":"event","name":"DeadSharesMinted","inputs":[{"name":"deadShares","type":"uint256","indexed":false,"internalType":"uint256"},{"name":"deadAddress","type":"address","indexed":false,"internalType":"address"}],"anonymous":false},{"type":"event","name":"Deposit","inputs":[{"name":"sender","type":"address","indexed":true,"internalType":"address"},{"name":"owner","type":"address","indexed":true,"internalType":"address"},{"name":"assets","type":"uint256","indexed":false,"internalType":"uint256"},{"name":"shares","type":"uint256","indexed":false,"internalType":"uint256"}],"anonymous":false},{"type":"event","name":"EmergencyWithdraw","inputs":[{"name":"user","type":"address","indexed":true,"internalType":"address"},{"name":"shares","type":"uint256","indexed":false,"internalType":"uint256"},{"name":"assets","type":"uint256","indexed":false,"internalType":"uint256"}],"anonymous":false},{"type":"event","name":"OwnershipTransferred","inputs":[{"name":"previousOwner","type":"address","indexed":true,"internalType":"address"},{"name":"newOwner","type":"address","indexed":true,"internalType":"address"}],"anonymous":false},{"type":"event","name":"Paused","inputs":[{"name":"account","type":"address","indexed":false,"internalType":"address"}],"anonymous":false},{"type":"event","name":"SlippageGuardTriggered","inputs":[{"name":"user","type":"address","indexed":true,"internalType":"address"},{"name":"expected","type":"uint256","indexed":false,"internalType":"uint256"},{"name":"actual","type":"uint256","indexed":false,"internalType":"uint256"},{"name":"operation","type":"bytes32","indexed":true,"internalType":"bytes32"}],"anonymous":false},{"type":"event","name":"Transfer","inputs":[{"name":"from","type":"address","indexed":true,"internalType":"address"},{"name":"to","type":"address","indexed":true,"internalType":"address"},{"name":"value","type":"uint256","indexed":false,"internalType":"uint256"}],"anonymous":false},{"type":"event","name":"Unpaused","inputs":[{"name":"account","type":"address","indexed":false,"internalType":"address"}],"anonymous":false},{"type":"event","name":"Withdraw","inputs":[{"name":"sender","type":"address","indexed":true,"internalType":"address"},{"name":"receiver","type":"address","indexed":true,"internalType":"address"},{"name":"owner","type":"address","indexed":true,"internalType":"address"},{"name":"assets","type":"uint256","indexed":false,"internalType":"uint256"},{"name":"shares","type":"uint256","indexed":false,"internalType":"uint256"}],"anonymous":false},{"type":"error","name":"ERC20InsufficientAllowance","inputs":[{"name":"spender","type":"address","internalType":"address"},{"name":"allowance","type":"uint256","internalType":"uint256"},{"name":"needed","type":"uint256","internalType":"uint256"}]},{"type":"error","name":"ERC20InsufficientBalance","inputs":[{"name":"sender","type":"address","internalType":"address"},{"name":"balance","type":"uint256","internalType":"uint256"},{"name":"needed","type":"uint256","internalType":"uint256"}]},{"type":"error","name":"ERC20InvalidApprover","inputs":[{"name":"approver","type":"address","internalType":"address"}]},{"type":"error","name":"ERC20InvalidReceiver","inputs":[{"name":"receiver","type":"address","internalType":"address"}]},{"type":"error","name":"ERC20InvalidSender","inputs":[{"name":"sender","type":"address","internalType":"address"}]},{"type":"error","name":"ERC20InvalidSpender","inputs":[{"name":"spender","type":"address","internalType":"address"}]},{"type":"error","name":"ERC4626ExceededMaxDeposit","inputs":[{"name":"receiver","type":"address","internalType":"address"},{"name":"assets","type":"uint256","internalType":"uint256"},{"name":"max","type":"uint256","internalType":"uint256"}]},{"type":"error","name":"ERC4626ExceededMaxMint","inputs":[{"name":"receiver","type":"address","internalType":"address"},{"name":"shares","type":"uint256","internalType":"uint256"},{"name":"max","type":"uint256","internalType":"uint256"}]},{"type":"error","name":"ERC4626ExceededMaxRedeem","inputs":[{"name":"owner","type":"address","internalType":"address"},{"name":"shares","type":"uint256","internalType":"uint256"},{"name":"max","type":"uint256","internalType":"uint256"}]},{"type":"error","name":"ERC4626ExceededMaxWithdraw","inputs":[{"name":"owner","type":"address","internalType":"address"},{"name":"assets","type":"uint256","internalType":"uint256"},{"name":"max","type":"uint256","internalType":"uint256"}]},{"type":"error","name":"EmergencyWithdrawFailed","inputs":[]},{"type":"error","name":"EnforcedPause","inputs":[]},{"type":"error","name":"ExpectedPause","inputs":[]},{"type":"error","name":"InsufficientBalance","inputs":[{"name":"requested","type":"uint256","internalType":"uint256"},{"name":"available","type":"uint256","internalType":"uint256"}]},{"type":"error","name":"InsufficientDeposit","inputs":[{"name":"provided","type":"uint256","internalType":"uint256"},{"name":"minimum","type":"uint256","internalType":"uint256"}]},{"type":"error","name":"InsufficientLiquidity","inputs":[{"name":"requested","type":"uint256","internalType":"uint256"},{"name":"available","type":"uint256","internalType":"uint256"}]},{"type":"error","name":"InvalidAsset","inputs":[{"name":"provided","type":"address","internalType":"address"},{"name":"expected","type":"address","internalType":"address"}]},{"type":"error","name":"MintDisabled","inputs":[]},{"type":"error","name":"OwnableInvalidOwner","inputs":[{"name":"owner","type":"address","internalType":"address"}]},{"type":"error","name":"OwnableUnauthorizedAccount","inputs":[{"name":"account","type":"address","internalType":"address"}]},{"type":"error","name":"ReentrancyGuardReentrantCall","inputs":[]},{"type":"error","name":"SafeERC20FailedOperation","inputs":[{"name":"token","type":"address","internalType":"address"}]},{"type":"error","name":"SlippageExceeded","inputs":[{"name":"expected","type":"uint256","internalType":"uint256"},{"name":"actual","type":"uint256","internalType":"uint256"}]},{"type":"error","name":"WithdrawDisabled","inputs":[]}],"bytecode":{"object":"0x60e060405234801561000f575f5ffd5b50604051613dd1380380613dd183398181016040528101906100319190610608565b33826040518060400160405280600c81526020017f526973654669205661756c7400000000000000000000000000000000000000008152506040518060400160405280600681526020017f726655534443000000000000000000000000000000000000000000000000000081525081600390816100ae9190610883565b5080600490816100be9190610883565b5050505f5f6100d2836103a160201b60201c565b91509150816100e25760126100e4565b805b60ff1660a08160ff16815250508273ffffffffffffffffffffffffffffffffffffffff1660808173ffffffffffffffffffffffffffffffffffffffff168152505050505060016005819055505f73ffffffffffffffffffffffffffffffffffffffff168173ffffffffffffffffffffffffffffffffffffffff16036101a0575f6040517f1e4fbdf70000000000000000000000000000000000000000000000000000000081526004016101979190610961565b60405180910390fd5b6101af816104aa60201b60201c565b5073833589fcd6edb6e08f4c7c32d4f71b54bda0291373ffffffffffffffffffffffffffffffffffffffff168273ffffffffffffffffffffffffffffffffffffffff161461024a578173833589fcd6edb6e08f4c7c32d4f71b54bda029136040517f31ce6d0e00000000000000000000000000000000000000000000000000000000815260040161024192919061097a565b60405180910390fd5b8073ffffffffffffffffffffffffffffffffffffffff1660c08173ffffffffffffffffffffffffffffffffffffffff16815250508173ffffffffffffffffffffffffffffffffffffffff1663095ea7b360c0515f6040518363ffffffff1660e01b81526004016102bb9291906109da565b6020604051808303815f875af11580156102d7573d5f5f3e3d5ffd5b505050506040513d601f19601f820116820180604052508101906102fb9190610a36565b508173ffffffffffffffffffffffffffffffffffffffff1663095ea7b360c0517fffffffffffffffffffffffffffffffffffffffffffffffffffffffffffffffff6040518363ffffffff1660e01b8152600401610359929190610a70565b6020604051808303815f875af1158015610375573d5f5f3e3d5ffd5b505050506040513d601f19601f820116820180604052508101906103999190610a36565b505050610b54565b5f5f5f5f8473ffffffffffffffffffffffffffffffffffffffff1660405160240160405160208183030381529060405263313ce56760e01b6020820180517bffffffffffffffffffffffffffffffffffffffffffffffffffffffff83818316178352505050506040516104149190610ae9565b5f60405180830381855afa9150503d805f811461044c576040519150601f19603f3d011682016040523d82523d5f602084013e610451565b606091505b509150915081801561046557506020815110155b1561049c575f8180602001905181019061047f9190610b29565b905060ff8016811161049a57600181945094505050506104a5565b505b5f5f9350935050505b915091565b5f600660019054906101000a900473ffffffffffffffffffffffffffffffffffffffff16905081600660016101000a81548173ffffffffffffffffffffffffffffffffffffffff021916908373ffffffffffffffffffffffffffffffffffffffff1602179055508173ffffffffffffffffffffffffffffffffffffffff168173ffffffffffffffffffffffffffffffffffffffff167f8be0079c531659141344cd1fd0a4f28419497f9722a3daafe3b4186f6b6457e060405160405180910390a35050565b5f5ffd5b5f73ffffffffffffffffffffffffffffffffffffffff82169050919050565b5f61059c82610573565b9050919050565b5f6105ad82610592565b9050919050565b6105bd816105a3565b81146105c7575f5ffd5b50565b5f815190506105d8816105b4565b92915050565b6105e781610592565b81146105f1575f5ffd5b50565b5f81519050610602816105de565b92915050565b5f5f6040838503121561061e5761061d61056f565b5b5f61062b858286016105ca565b925050602061063c858286016105f4565b9150509250929050565b5f81519050919050565b7f4e487b71000000000000000000000000000000000000000000000000000000005f52604160045260245ffd5b7f4e487b71000000000000000000000000000000000000000000000000000000005f52602260045260245ffd5b5f60028204905060018216806106c157607f821691505b6020821081036106d4576106d361067d565b5b50919050565b5f819050815f5260205f209050919050565b5f6020601f8301049050919050565b5f82821b905092915050565b5f600883026107367fffffffffffffffffffffffffffffffffffffffffffffffffffffffffffffffff826106fb565b61074086836106fb565b95508019841693508086168417925050509392505050565b5f819050919050565b5f819050919050565b5f61078461077f61077a84610758565b610761565b610758565b9050919050565b5f819050919050565b61079d8361076a565b6107b16107a98261078b565b848454610707565b825550505050565b5f5f905090565b6107c86107b9565b6107d3818484610794565b505050565b5b818110156107f6576107eb5f826107c0565b6001810190506107d9565b5050565b601f82111561083b5761080c816106da565b610815846106ec565b81016020851015610824578190505b610838610830856106ec565b8301826107d8565b50505b505050565b5f82821c905092915050565b5f61085b5f1984600802610840565b1980831691505092915050565b5f610873838361084c565b9150826002028217905092915050565b61088c82610646565b67ffffffffffffffff8111156108a5576108a4610650565b5b6108af82546106aa565b6108ba8282856107fa565b5f60209050601f8311600181146108eb575f84156108d9578287015190505b6108e38582610868565b86555061094a565b601f1984166108f9866106da565b5f5b82811015610920578489015182556001820191506020850194506020810190506108fb565b8683101561093d5784890151610939601f89168261084c565b8355505b6001600288020188555050505b505050505050565b61095b81610592565b82525050565b5f6020820190506109745f830184610952565b92915050565b5f60408201905061098d5f830185610952565b61099a6020830184610952565b9392505050565b5f819050919050565b5f6109c46109bf6109ba846109a1565b610761565b610758565b9050919050565b6109d4816109aa565b82525050565b5f6040820190506109ed5f830185610952565b6109fa60208301846109cb565b9392505050565b5f8115159050919050565b610a1581610a01565b8114610a1f575f5ffd5b50565b5f81519050610a3081610a0c565b92915050565b5f60208284031215610a4b57610a4a61056f565b5b5f610a5884828501610a22565b91505092915050565b610a6a81610758565b82525050565b5f604082019050610a835f830185610952565b610a906020830184610a61565b9392505050565b5f81519050919050565b5f81905092915050565b8281835e5f83830152505050565b5f610ac382610a97565b610acd8185610aa1565b9350610add818560208601610aab565b80840191505092915050565b5f610af48284610ab9565b915081905092915050565b610b0881610758565b8114610b12575f5ffd5b50565b5f81519050610b2381610aff565b92915050565b5f60208284031215610b3e57610b3d61056f565b5b5f610b4b84828501610b15565b91505092915050565b60805160a05160c051613202610bcf5f395f81816108a0015281816108dc01528181610b9001528181610e2901528181610ecb01528181611007015281816111390152818161154401528181611ac001528181611f8f015281816121ca0152818161226501526122ff01525f50505f610f7601526132025ff3fe608060405234801561000f575f5ffd5b5060043610610267575f3560e01c8063715018a61161014f578063ba087652116100c1578063d905777e11610085578063d905777e146107b5578063dd62ed3e146107e5578063e1e158a514610815578063e1f1c4a714610833578063ef8b30f714610851578063f2fde38b1461088157610267565b8063ba087652146106c5578063c63d75b6146106f5578063c6e6f59214610725578063ce96cb7714610755578063d0c260df1461078557610267565b806395d89b411161011357806395d89b41146105db5780639bffb798146105f9578063a9059cbb14610617578063b187bd2614610647578063b3d7f6b914610665578063b460af941461069557610267565b8063715018a61461055b5780638456cb591461056557806389a302711461056f5780638da5cb5b1461058d57806394bf804d146105ab57610267565b8063313ce567116101e85780634cdad506116101ac5780634cdad506146104715780634e6fd6c4146104a15780635169379c146104bf5780635c975abb146104dd5780636e553f65146104fb57806370a082311461052b57610267565b8063313ce567146103dd57806338d52e0f146103fb5780633f4ba83a14610419578063402d267d146104235780634c2037861461045357610267565b80630a28a4771161022f5780630a28a4771461032557806318160ddd1461035557806323b872dd146103735780632f940c70146103a357806330719f4a146103d357610267565b806301e1d1141461026b578063068075971461028957806306fdde03146102a757806307a2d13a146102c5578063095ea7b3146102f5575b5f5ffd5b61027361089d565b6040516102809190612a68565b60405180910390f35b6102916109d2565b60405161029e9190612a68565b60405180910390f35b6102af6109da565b6040516102bc9190612af1565b60405180910390f35b6102df60048036038101906102da9190612b3f565b610a6a565b6040516102ec9190612a68565b60405180910390f35b61030f600480360381019061030a9190612bc4565b610a7c565b60405161031c9190612c1c565b60405180910390f35b61033f600480360381019061033a9190612b3f565b610a9e565b60405161034c9190612a68565b60405180910390f35b61035d610aa7565b60405161036a9190612a68565b60405180910390f35b61038d60048036038101906103889190612c35565b610ab0565b60405161039a9190612c1c565b60405180910390f35b6103bd60048036038101906103b89190612c85565b610ade565b6040516103ca9190612a68565b60405180910390f35b6103db610e1e565b005b6103e5610f6b565b6040516103f29190612cde565b60405180910390f35b610403610f73565b6040516104109190612d06565b60405180910390f35b610421610f9a565b005b61043d60048036038101906104389190612d1f565b610fac565b60405161044a9190612a68565b60405180910390f35b61045b610fe8565b6040516104689190612a68565b60405180910390f35b61048b60048036038101906104869190612b3f565b610fed565b6040516104989190612a68565b60405180910390f35b6104a9610fff565b6040516104b69190612d06565b60405180910390f35b6104c7611005565b6040516104d49190612da5565b60405180910390f35b6104e5611029565b6040516104f29190612c1c565b60405180910390f35b61051560048036038101906105109190612c85565b61103e565b6040516105229190612a68565b60405180910390f35b61054560048036038101906105409190612d1f565b611257565b6040516105529190612a68565b60405180910390f35b61056361129c565b005b61056d6112af565b005b6105776112c1565b6040516105849190612d06565b60405180910390f35b6105956112d9565b6040516105a29190612d06565b60405180910390f35b6105c560048036038101906105c09190612c85565b611302565b6040516105d29190612a68565b60405180910390f35b6105e3611335565b6040516105f09190612af1565b60405180910390f35b6106016113c5565b60405161060e9190612a68565b60405180910390f35b610631600480360381019061062c9190612bc4565b6113cb565b60405161063e9190612c1c565b60405180910390f35b61064f6113ed565b60405161065c9190612c1c565b60405180910390f35b61067f600480360381019061067a9190612b3f565b6113fb565b60405161068c9190612a68565b60405180910390f35b6106af60048036038101906106aa9190612dbe565b611404565b6040516106bc9190612a68565b60405180910390f35b6106df60048036038101906106da9190612dbe565b611437565b6040516106ec9190612a68565b60405180910390f35b61070f600480360381019061070a9190612d1f565b611681565b60405161071c9190612a68565b60405180910390f35b61073f600480360381019061073a9190612b3f565b61168a565b60405161074c9190612a68565b60405180910390f35b61076f600480360381019061076a9190612d1f565b61169c565b60405161077c9190612a68565b60405180910390f35b61079f600480360381019061079a9190612e0e565b6116a5565b6040516107ac9190612c1c565b60405180910390f35b6107cf60048036038101906107ca9190612d1f565b6116ef565b6040516107dc9190612a68565b60405180910390f35b6107ff60048036038101906107fa9190612e4c565b61174e565b60405161080c9190612a68565b60405180910390f35b61081d6117d0565b60405161082a9190612a68565b60405180910390f35b61083b6117d7565b6040516108489190612a68565b60405180910390f35b61086b60048036038101906108669190612b3f565b6117dd565b6040516108789190612a68565b60405180910390f35b61089b60048036038101906108969190612d1f565b6117ef565b005b5f7f000000000000000000000000000000000000000000000000000000000000000073ffffffffffffffffffffffffffffffffffffffff166307a2d13a7f000000000000000000000000000000000000000000000000000000000000000073ffffffffffffffffffffffffffffffffffffffff166370a08231306040518263ffffffff1660e01b81526004016109339190612d06565b602060405180830381865afa15801561094e573d5f5f3e3d5ffd5b505050506040513d601f19601f820116820180604052508101906109729190612e9e565b6040518263ffffffff1660e01b815260040161098e9190612a68565b602060405180830381865afa1580156109a9573d5f5f3e3d5ffd5b505050506040513d601f19601f820116820180604052508101906109cd9190612e9e565b905090565b5f6064905090565b6060600380546109e990612ef6565b80601f0160208091040260200160405190810160405280929190818152602001828054610a1590612ef6565b8015610a605780601f10610a3757610100808354040283529160200191610a60565b820191905f5260205f20905b815481529060010190602001808311610a4357829003601f168201915b5050505050905090565b5f610a75825f611873565b9050919050565b5f5f610a866118da565b9050610a938185856118e1565b600191505092915050565b5f5f9050919050565b5f600254905090565b5f5f610aba6118da565b9050610ac78582856118f3565b610ad2858585611986565b60019150509392505050565b5f610ae7611a76565b5f8303610af6575f9050610e10565b5f610b0033611257565b905080841115610b495783816040517fcf479181000000000000000000000000000000000000000000000000000000008152600401610b40929190612f26565b60405180910390fd5b5f610b5385611abc565b90505f8103610b8e576040517f801d5b7d00000000000000000000000000000000000000000000000000000000815260040160405180910390fd5b7f000000000000000000000000000000000000000000000000000000000000000073ffffffffffffffffffffffffffffffffffffffff1663ba0876528286306040518463ffffffff1660e01b8152600401610beb93929190612f4d565b6020604051808303815f875af1925050508015610c2657506040513d601f19601f82011682018060405250810190610c239190612e9e565b60015b610dae575f610c33610f73565b73ffffffffffffffffffffffffffffffffffffffff166370a08231306040518263ffffffff1660e01b8152600401610c6b9190612d06565b602060405180830381865afa158015610c86573d5f5f3e3d5ffd5b505050506040513d601f19601f82011682018060405250810190610caa9190612e9e565b90505f610cb5610aa7565b90506103e881111580610cc757505f82145b15610cfe576040517f801d5b7d00000000000000000000000000000000000000000000000000000000815260040160405180910390fd5b5f6103e882039050808389610d139190612faf565b610d1d919061301d565b95505f86118015610d2e5750858310155b15610d7457610d3d3389611b8c565b610d6f8787610d4a610f73565b73ffffffffffffffffffffffffffffffffffffffff16611c0b9092919063ffffffff16565b610da6565b6040517f801d5b7d00000000000000000000000000000000000000000000000000000000815260040160405180910390fd5b505050610dbd565b610db83387611b8c565b809350505b3373ffffffffffffffffffffffffffffffffffffffff167fbb757047c2b5f3974fe26b7c10f732e7bce710b0952a71082702781e62ae05958685604051610e05929190612f26565b60405180910390a250505b610e18611c5e565b92915050565b610e26611c68565b5f7f000000000000000000000000000000000000000000000000000000000000000073ffffffffffffffffffffffffffffffffffffffff166370a08231306040518263ffffffff1660e01b8152600401610e809190612d06565b602060405180830381865afa158015610e9b573d5f5f3e3d5ffd5b505050506040513d601f19601f82011682018060405250810190610ebf9190612e9e565b90505f811115610f68577f000000000000000000000000000000000000000000000000000000000000000073ffffffffffffffffffffffffffffffffffffffff1663ba0876528230306040518463ffffffff1660e01b8152600401610f2693929190612f4d565b6020604051808303815f875af1158015610f42573d5f5f3e3d5ffd5b505050506040513d601f19601f82011682018060405250810190610f669190612e9e565b505b50565b5f6012905090565b5f7f0000000000000000000000000000000000000000000000000000000000000000905090565b610fa2611c68565b610faa611cef565b565b5f610fb5611029565b610fdf577fffffffffffffffffffffffffffffffffffffffffffffffffffffffffffffffff610fe1565b5f5b9050919050565b606481565b5f610ff8825f611873565b9050919050565b61dead81565b7f000000000000000000000000000000000000000000000000000000000000000081565b5f60065f9054906101000a900460ff16905090565b5f611047611a76565b61104f611d50565b82620f424081101561109d5780620f42406040517f25c3f46e000000000000000000000000000000000000000000000000000000008152600401611094929190612f26565b60405180910390fd5b5f6110a6610aa7565b036110f7576110b961dead6103e8611d91565b7fa2d8588c23635d7c45733f77864dedf3291449dc264409c827d92c17895efc1d6103e861dead6040516110ee92919061304d565b60405180910390a15b5f611101856117dd565b9050611137333087611111610f73565b73ffffffffffffffffffffffffffffffffffffffff16611e10909392919063ffffffff16565b7f000000000000000000000000000000000000000000000000000000000000000073ffffffffffffffffffffffffffffffffffffffff16636e553f6586306040518363ffffffff1660e01b815260040161119292919061304d565b6020604051808303815f875af11580156111ae573d5f5f3e3d5ffd5b505050506040513d601f19601f820116820180604052508101906111d29190612e9e565b506111dd8482611d91565b8373ffffffffffffffffffffffffffffffffffffffff163373ffffffffffffffffffffffffffffffffffffffff167fdcbc1c05240f31ff3ad067ef1ee35ce4997762752e3a095284754544f4c709d7878460405161123c929190612f26565b60405180910390a38092505050611251611c5e565b92915050565b5f5f5f8373ffffffffffffffffffffffffffffffffffffffff1673ffffffffffffffffffffffffffffffffffffffff1681526020019081526020015f20549050919050565b6112a4611c68565b6112ad5f611e65565b565b6112b7611c68565b6112bf611f2a565b565b73833589fcd6edb6e08f4c7c32d4f71b54bda0291381565b5f600660019054906101000a900473ffffffffffffffffffffffffffffffffffffffff16905090565b5f6040517f17efbd6b00000000000000000000000000000000000000000000000000000000815260040160405180910390fd5b60606004805461134490612ef6565b80601f016020809104026020016040519081016040528092919081815260200182805461137090612ef6565b80156113bb5780601f10611392576101008083540402835291602001916113bb565b820191905f5260205f20905b81548152906001019060200180831161139e57829003601f168201915b5050505050905090565b6103e881565b5f5f6113d56118da565b90506113e2818585611986565b600191505092915050565b5f6113f6611029565b905090565b5f5f9050919050565b5f6040517f37ae717b00000000000000000000000000000000000000000000000000000000815260040160405180910390fd5b5f611440611a76565b611448611d50565b81848173ffffffffffffffffffffffffffffffffffffffff163373ffffffffffffffffffffffffffffffffffffffff1614611489576114888233836118f3565b5b5f8603611516578373ffffffffffffffffffffffffffffffffffffffff168573ffffffffffffffffffffffffffffffffffffffff163373ffffffffffffffffffffffffffffffffffffffff167ffbde797d201c681b91056529119e0b02407c7bb96a4a2c75c01fc9667232c8db5f5f6040516115069291906130ad565b60405180910390a45f9250611670565b5f61152087610fed565b90505f61152c88611abc565b905061153781611f8c565b6115418689611b8c565b5f7f000000000000000000000000000000000000000000000000000000000000000073ffffffffffffffffffffffffffffffffffffffff1663ba087652838a306040518463ffffffff1660e01b815260040161159f93929190612f4d565b6020604051808303815f875af11580156115bb573d5f5f3e3d5ffd5b505050506040513d601f19601f820116820180604052508101906115df9190612e9e565b90506115eb8382612072565b8673ffffffffffffffffffffffffffffffffffffffff168873ffffffffffffffffffffffffffffffffffffffff163373ffffffffffffffffffffffffffffffffffffffff167ffbde797d201c681b91056529119e0b02407c7bb96a4a2c75c01fc9667232c8db848d604051611661929190612f26565b60405180910390a48095505050505b505061167a611c5e565b9392505050565b5f5f9050919050565b5f611695825f612159565b9050919050565b5f5f9050919050565b5f5f83036116b7575f821490506116e9565b5f61271060646127106116ca91906130d4565b856116d59190612faf565b6116df919061301d565b9050808310159150505b92915050565b5f6116f8611029565b15611705575f9050611749565b5f61170f83611257565b90505f8103611721575f915050611749565b5f61173361172d6121c6565b5f612159565b90508082116117425781611744565b805b925050505b919050565b5f60015f8473ffffffffffffffffffffffffffffffffffffffff1673ffffffffffffffffffffffffffffffffffffffff1681526020019081526020015f205f8373ffffffffffffffffffffffffffffffffffffffff1673ffffffffffffffffffffffffffffffffffffffff1681526020019081526020015f2054905092915050565b620f424081565b61271081565b5f6117e8825f612159565b9050919050565b6117f7611c68565b5f73ffffffffffffffffffffffffffffffffffffffff168173ffffffffffffffffffffffffffffffffffffffff1603611867575f6040517f1e4fbdf700000000000000000000000000000000000000000000000000000000815260040161185e9190612d06565b60405180910390fd5b61187081611e65565b50565b5f5f61187d610aa7565b90505f61188861089d565b90505f820361189b575f925050506118d4565b6103e882116118ae575f925050506118d4565b5f6103e883039050808611156118c2578095505b6118ce868383886123aa565b93505050505b92915050565b5f33905090565b6118ee83838360016123f7565b505050565b5f6118fe848461174e565b90507fffffffffffffffffffffffffffffffffffffffffffffffffffffffffffffffff8110156119805781811015611971578281836040517ffb8f41b200000000000000000000000000000000000000000000000000000000815260040161196893929190613107565b60405180910390fd5b61197f84848484035f6123f7565b5b50505050565b5f73ffffffffffffffffffffffffffffffffffffffff168373ffffffffffffffffffffffffffffffffffffffff16036119f6575f6040517f96c6fd1e0000000000000000000000000000000000000000000000000000000081526004016119ed9190612d06565b60405180910390fd5b5f73ffffffffffffffffffffffffffffffffffffffff168273ffffffffffffffffffffffffffffffffffffffff1603611a66575f6040517fec442f05000000000000000000000000000000000000000000000000000000008152600401611a5d9190612d06565b60405180910390fd5b611a718383836125c6565b505050565b600260055403611ab2576040517f3ee5aeb500000000000000000000000000000000000000000000000000000000815260040160405180910390fd5b6002600581905550565b5f5f7f000000000000000000000000000000000000000000000000000000000000000073ffffffffffffffffffffffffffffffffffffffff166370a08231306040518263ffffffff1660e01b8152600401611b179190612d06565b602060405180830381865afa158015611b32573d5f5f3e3d5ffd5b505050506040513d601f19601f82011682018060405250810190611b569190612e9e565b90505f611b61610aa7565b90505f6103e882039050808386611b789190612faf565b611b82919061301d565b9350505050919050565b5f73ffffffffffffffffffffffffffffffffffffffff168273ffffffffffffffffffffffffffffffffffffffff1603611bfc575f6040517f96c6fd1e000000000000000000000000000000000000000000000000000000008152600401611bf39190612d06565b60405180910390fd5b611c07825f836125c6565b5050565b611c1883838360016127df565b611c5957826040517f5274afe7000000000000000000000000000000000000000000000000000000008152600401611c509190612d06565b60405180910390fd5b505050565b6001600581905550565b611c706118da565b73ffffffffffffffffffffffffffffffffffffffff16611c8e6112d9565b73ffffffffffffffffffffffffffffffffffffffff1614611ced57611cb16118da565b6040517f118cdaa7000000000000000000000000000000000000000000000000000000008152600401611ce49190612d06565b60405180910390fd5b565b611cf7612841565b5f60065f6101000a81548160ff0219169083151502179055507f5db9ee0a495bf2e6ff9c91a7834c1ba4fdd244a5e8aa4e537bd38aeae4b073aa611d396118da565b604051611d469190612d06565b60405180910390a1565b611d58611029565b15611d8f576040517fd93c066500000000000000000000000000000000000000000000000000000000815260040160405180910390fd5b565b5f73ffffffffffffffffffffffffffffffffffffffff168273ffffffffffffffffffffffffffffffffffffffff1603611e01575f6040517fec442f05000000000000000000000000000000000000000000000000000000008152600401611df89190612d06565b60405180910390fd5b611e0c5f83836125c6565b5050565b611e1e848484846001612881565b611e5f57836040517f5274afe7000000000000000000000000000000000000000000000000000000008152600401611e569190612d06565b60405180910390fd5b50505050565b5f600660019054906101000a900473ffffffffffffffffffffffffffffffffffffffff16905081600660016101000a81548173ffffffffffffffffffffffffffffffffffffffff021916908373ffffffffffffffffffffffffffffffffffffffff1602179055508173ffffffffffffffffffffffffffffffffffffffff168173ffffffffffffffffffffffffffffffffffffffff167f8be0079c531659141344cd1fd0a4f28419497f9722a3daafe3b4186f6b6457e060405160405180910390a35050565b611f32611d50565b600160065f6101000a81548160ff0219169083151502179055507f62e78cea01bee320cd4e420270b5ea74000d11b0c9f74754ebdbfc544b05a258611f756118da565b604051611f829190612d06565b60405180910390a1565b5f7f000000000000000000000000000000000000000000000000000000000000000073ffffffffffffffffffffffffffffffffffffffff1663d905777e306040518263ffffffff1660e01b8152600401611fe69190612d06565b602060405180830381865afa158015612001573d5f5f3e3d5ffd5b505050506040513d601f19601f820116820180604052508101906120259190612e9e565b90508082111561206e5781816040517fa17e11d5000000000000000000000000000000000000000000000000000000008152600401612065929190612f26565b60405180910390fd5b5050565b5f612710606461271061208591906130d4565b846120909190612faf565b61209a919061301d565b905080821015612154577f72656465656d00000000000000000000000000000000000000000000000000003373ffffffffffffffffffffffffffffffffffffffff167fd7240d182f98cdc4fcc02c5734da978a6e8ed1595a9af477e2d34b173d6134d2858560405161210d929190612f26565b60405180910390a382826040517f71c4efed00000000000000000000000000000000000000000000000000000000815260040161214b929190612f26565b60405180910390fd5b505050565b5f5f612163610aa7565b90505f61216e61089d565b90505f82036121815784925050506121c0565b6103e882116121945784925050506121c0565b5f6103e8830390505f82036121ae578593505050506121c0565b6121ba868284886123aa565b93505050505b92915050565b5f5f7f000000000000000000000000000000000000000000000000000000000000000073ffffffffffffffffffffffffffffffffffffffff166370a08231306040518263ffffffff1660e01b81526004016122219190612d06565b602060405180830381865afa15801561223c573d5f5f3e3d5ffd5b505050506040513d601f19601f820116820180604052508101906122609190612e9e565b90505f7f000000000000000000000000000000000000000000000000000000000000000073ffffffffffffffffffffffffffffffffffffffff1663d905777e306040518263ffffffff1660e01b81526004016122bc9190612d06565b602060405180830381865afa1580156122d7573d5f5f3e3d5ffd5b505050506040513d601f19601f820116820180604052508101906122fb9190612e9e565b90507f000000000000000000000000000000000000000000000000000000000000000073ffffffffffffffffffffffffffffffffffffffff166307a2d13a8284116123465783612348565b825b6040518263ffffffff1660e01b81526004016123649190612a68565b602060405180830381865afa15801561237f573d5f5f3e3d5ffd5b505050506040513d601f19601f820116820180604052508101906123a39190612e9e565b9250505090565b5f6123d86123b7836128f2565b80156123d357505f84806123ce576123cd612ff0565b5b868809115b61291f565b6123e386868661292a565b6123ed919061313c565b9050949350505050565b5f73ffffffffffffffffffffffffffffffffffffffff168473ffffffffffffffffffffffffffffffffffffffff1603612467575f6040517fe602df0500000000000000000000000000000000000000000000000000000000815260040161245e9190612d06565b60405180910390fd5b5f73ffffffffffffffffffffffffffffffffffffffff168373ffffffffffffffffffffffffffffffffffffffff16036124d7575f6040517f94280d620000000000000000000000000000000000000000000000000000000081526004016124ce9190612d06565b60405180910390fd5b8160015f8673ffffffffffffffffffffffffffffffffffffffff1673ffffffffffffffffffffffffffffffffffffffff1681526020019081526020015f205f8573ffffffffffffffffffffffffffffffffffffffff1673ffffffffffffffffffffffffffffffffffffffff1681526020019081526020015f208190555080156125c0578273ffffffffffffffffffffffffffffffffffffffff168473ffffffffffffffffffffffffffffffffffffffff167f8c5be1e5ebec7d5bd14f71427d1e84f3dd0314c0f7b2291e5b200ac8c7c3b925846040516125b79190612a68565b60405180910390a35b50505050565b5f73ffffffffffffffffffffffffffffffffffffffff168373ffffffffffffffffffffffffffffffffffffffff1603612616578060025f82825461260a919061313c565b925050819055506126e4565b5f5f5f8573ffffffffffffffffffffffffffffffffffffffff1673ffffffffffffffffffffffffffffffffffffffff1681526020019081526020015f205490508181101561269f578381836040517fe450d38c00000000000000000000000000000000000000000000000000000000815260040161269693929190613107565b60405180910390fd5b8181035f5f8673ffffffffffffffffffffffffffffffffffffffff1673ffffffffffffffffffffffffffffffffffffffff1681526020019081526020015f2081905550505b5f73ffffffffffffffffffffffffffffffffffffffff168273ffffffffffffffffffffffffffffffffffffffff160361272b578060025f8282540392505081905550612775565b805f5f8473ffffffffffffffffffffffffffffffffffffffff1673ffffffffffffffffffffffffffffffffffffffff1681526020019081526020015f205f82825401925050819055505b8173ffffffffffffffffffffffffffffffffffffffff168373ffffffffffffffffffffffffffffffffffffffff167fddf252ad1be2c89b69c2b068fc378daa952ba7f163c4a11628f55a4df523b3ef836040516127d29190612a68565b60405180910390a3505050565b5f5f63a9059cbb60e01b9050604051815f525f1960601c86166004528460245260205f60445f5f8b5af1925060015f51148316612833578383151615612827573d5f823e3d81fd5b5f873b113d1516831692505b806040525050949350505050565b612849611029565b61287f576040517f8dfc202b00000000000000000000000000000000000000000000000000000000815260040160405180910390fd5b565b5f5f6323b872dd60e01b9050604051815f525f1960601c87166004525f1960601c86166024528460445260205f60645f5f8c5af1925060015f511483166128df5783831516156128d3573d5f823e3d81fd5b5f883b113d1516831692505b806040525f606052505095945050505050565b5f6001600283600381111561290a5761290961316f565b5b612914919061319c565b60ff16149050919050565b5f8115159050919050565b5f5f5f6129378686612a09565b915091505f820361295c5783818161295257612951612ff0565b5b0492505050612a02565b81841161297b5761297a6129755f861460126011612a26565b612a3f565b5b5f8486880990508181118303925080820391505f855f038616905080860495508083049250600181825f0304019050808402831792505f600287600302189050808702600203810290508087026002038102905080870260020381029050808702600203810290508087026002038102905080870260020381029050808402955050505050505b9392505050565b5f5f5f198385098385029150818110828203039250509250929050565b5f612a308461291f565b82841802821890509392505050565b634e487b715f52806020526024601cfd5b5f819050919050565b612a6281612a50565b82525050565b5f602082019050612a7b5f830184612a59565b92915050565b5f81519050919050565b5f82825260208201905092915050565b8281835e5f83830152505050565b5f601f19601f8301169050919050565b5f612ac382612a81565b612acd8185612a8b565b9350612add818560208601612a9b565b612ae681612aa9565b840191505092915050565b5f6020820190508181035f830152612b098184612ab9565b905092915050565b5f5ffd5b612b1e81612a50565b8114612b28575f5ffd5b50565b5f81359050612b3981612b15565b92915050565b5f60208284031215612b5457612b53612b11565b5b5f612b6184828501612b2b565b91505092915050565b5f73ffffffffffffffffffffffffffffffffffffffff82169050919050565b5f612b9382612b6a565b9050919050565b612ba381612b89565b8114612bad575f5ffd5b50565b5f81359050612bbe81612b9a565b92915050565b5f5f60408385031215612bda57612bd9612b11565b5b5f612be785828601612bb0565b9250506020612bf885828601612b2b565b9150509250929050565b5f8115159050919050565b612c1681612c02565b82525050565b5f602082019050612c2f5f830184612c0d565b92915050565b5f5f5f60608486031215612c4c57612c4b612b11565b5b5f612c5986828701612bb0565b9350506020612c6a86828701612bb0565b9250506040612c7b86828701612b2b565b9150509250925092565b5f5f60408385031215612c9b57612c9a612b11565b5b5f612ca885828601612b2b565b9250506020612cb985828601612bb0565b9150509250929050565b5f60ff82169050919050565b612cd881612cc3565b82525050565b5f602082019050612cf15f830184612ccf565b92915050565b612d0081612b89565b82525050565b5f602082019050612d195f830184612cf7565b92915050565b5f60208284031215612d3457612d33612b11565b5b5f612d4184828501612bb0565b91505092915050565b5f819050919050565b5f612d6d612d68612d6384612b6a565b612d4a565b612b6a565b9050919050565b5f612d7e82612d53565b9050919050565b5f612d8f82612d74565b9050919050565b612d9f81612d85565b82525050565b5f602082019050612db85f830184612d96565b92915050565b5f5f5f60608486031215612dd557612dd4612b11565b5b5f612de286828701612b2b565b9350506020612df386828701612bb0565b9250506040612e0486828701612bb0565b9150509250925092565b5f5f60408385031215612e2457612e23612b11565b5b5f612e3185828601612b2b565b9250506020612e4285828601612b2b565b9150509250929050565b5f5f60408385031215612e6257612e61612b11565b5b5f612e6f85828601612bb0565b9250506020612e8085828601612bb0565b9150509250929050565b5f81519050612e9881612b15565b92915050565b5f60208284031215612eb357612eb2612b11565b5b5f612ec084828501612e8a565b91505092915050565b7f4e487b71000000000000000000000000000000000000000000000000000000005f52602260045260245ffd5b5f6002820490506001821680612f0d57607f821691505b602082108103612f2057612f1f612ec9565b5b50919050565b5f604082019050612f395f830185612a59565b612f466020830184612a59565b9392505050565b5f606082019050612f605f830186612a59565b612f6d6020830185612cf7565b612f7a6040830184612cf7565b949350505050565b7f4e487b71000000000000000000000000000000000000000000000000000000005f52601160045260245ffd5b5f612fb982612a50565b9150612fc483612a50565b9250828202612fd281612a50565b91508282048414831517612fe957612fe8612f82565b5b5092915050565b7f4e487b71000000000000000000000000000000000000000000000000000000005f52601260045260245ffd5b5f61302782612a50565b915061303283612a50565b92508261304257613041612ff0565b5b828204905092915050565b5f6040820190506130605f830185612a59565b61306d6020830184612cf7565b9392505050565b5f819050919050565b5f61309761309261308d84613074565b612d4a565b612a50565b9050919050565b6130a78161307d565b82525050565b5f6040820190506130c05f83018561309e565b6130cd602083018461309e565b9392505050565b5f6130de82612a50565b91506130e983612a50565b925082820390508181111561310157613100612f82565b5b92915050565b5f60608201905061311a5f830186612cf7565b6131276020830185612a59565b6131346040830184612a59565b949350505050565b5f61314682612a50565b915061315183612a50565b925082820190508082111561316957613168612f82565b5b92915050565b7f4e487b71000000000000000000000000000000000000000000000000000000005f52602160045260245ffd5b5f6131a682612cc3565b91506131b183612cc3565b9250826131c1576131c0612ff0565b5b82820690509291505056fea2646970667358221220c2294c5352fce418d8451d73364b8ded92f9b08915d57972933a86453f6c9b3764736f6c634300081b0033","linkReferences":{}},"methodIdentifiers":{"BASIS_POINTS()":"e1f1c4a7","DEAD_ADDRESS()":"4e6fd6c4","DEAD_SHARES()":"9bffb798","MIN_DEPOSIT()":"e1e158a5","SLIPPAGE_TOLERANCE()":"4c203786","USDC()":"89a30271","allowance(address,address)":"dd62ed3e","approve(address,uint256)":"095ea7b3","asset()":"38d52e0f","balanceOf(address)":"70a08231","convertToAssets(uint256)":"07a2d13a","convertToShares(uint256)":"c6e6f592","decimals()":"313ce567","deposit(uint256,address)":"6e553f65","emergencyWithdraw(uint256,address)":"2f940c70","emergencyWithdrawFromMorpho()":"30719f4a","getSlippageTolerance()":"06807597","isPaused()":"b187bd26","isSlippageAcceptable(uint256,uint256)":"d0c260df","maxDeposit(address)":"402d267d","maxMint(address)":"c63d75b6","maxRedeem(address)":"d905777e","maxWithdraw(address)":"ce96cb77","mint(uint256,address)":"94bf804d","morphoVault()":"5169379c","name()":"06fdde03","owner()":"8da5cb5b","pause()":"8456cb59","paused()":"5c975abb","previewDeposit(uint256)":"ef8b30f7","previewMint(uint256)":"b3d7f6b9","previewRedeem(uint256)":"4cdad506","previewWithdraw(uint256)":"0a28a477","redeem(uint256,address,address)":"ba087652","renounceOwnership()":"715018a6","symbol()":"95d89b41","totalAssets()":"01e1d114","totalSupply()":"18160ddd","transfer(address,uint256)":"a9059cbb","transferFrom(address,address,uint256)":"23b872dd","transferOwnership(address)":"f2fde38b","unpause()":"3f4ba83a","withdraw(uint256,address,address)":"b460af94"},"storageLayout":{"storage":[{"astId":40009,"contract":"src/RiseFiVault.sol:RiseFiVault","label":"_balances","offset":0,"slot":"0","type":"t_mapping(t_address,t_uint256)"},{"astId":40015,"contract":"src/RiseFiVault.sol:RiseFiVault","label":"_allowances","offset":0,"slot":"1","type":"t_mapping(t_address,t_mapping(t_address,t_uint256))"},{"astId":40017,"contract":"src/RiseFiVault.sol:RiseFiVault","label":"_totalSupply","offset":0,"slot":"2","type":"t_uint256"},{"astId":40019,"contract":"src/RiseFiVault.sol:RiseFiVault","label":"_name","offset":0,"slot":"3","type":"t_string_storage"},{"astId":40021,"contract":"src/RiseFiVault.sol:RiseFiVault","label":"_symbol","offset":0,"slot":"4","type":"t_string_storage"},{"astId":41955,"contract":"src/RiseFiVault.sol:RiseFiVault","label":"_status","offset":0,"slot":"5","type":"t_uint256"},{"astId":41845,"contract":"src/RiseFiVault.sol:RiseFiVault","label":"_paused","offset":0,"slot":"6","type":"t_bool"},{"astId":39450,"contract":"src/RiseFiVault.sol:RiseFiVault","label":"_owner","offset":1,"slot":"6","type":"t_address"}],"types":{"t_address":{"encoding":"inplace","label":"address","numberOfBytes":"20"},"t_bool":{"encoding":"inplace","label":"bool","numberOfBytes":"1"},"t_mapping(t_address,t_mapping(t_address,t_uint256))":{"encoding":"mapping","key":"t_address","label":"mapping(address => mapping(address => uint256))","numberOfBytes":"32","value":"t_mapping(t_address,t_uint256)"},"t_mapping(t_address,t_uint256)":{"encoding":"mapping","key":"t_address","label":"mapping(address => uint256)","numberOfBytes":"32","value":"t_uint256"},"t_string_storage":{"encoding":"bytes","label":"string","numberOfBytes":"32"},"t_uint256":{"encoding":"inplace","label":"uint256","numberOfBytes":"32"}}},"id":40}